{
  "_format": "hh-sol-artifact-1",
  "contractName": "contractV2",
  "sourceName": "contracts/contractV2.sol",
  "abi": [
    {
      "anonymous": false,
      "inputs": [
        {
          "indexed": false,
          "internalType": "uint8",
          "name": "version",
          "type": "uint8"
        }
      ],
      "name": "Initialized",
      "type": "event"
    },
    {
      "inputs": [],
      "name": "getValue",
      "outputs": [
        {
          "internalType": "uint256",
          "name": "",
          "type": "uint256"
        }
      ],
      "stateMutability": "view",
      "type": "function"
    },
    {
      "inputs": [
        {
          "internalType": "uint256",
          "name": "_value",
          "type": "uint256"
        }
      ],
      "name": "increaseValue",
      "outputs": [],
      "stateMutability": "nonpayable",
      "type": "function"
    },
    {
      "inputs": [
        {
          "internalType": "uint256",
          "name": "_value",
          "type": "uint256"
        }
      ],
      "name": "initialize",
      "outputs": [],
      "stateMutability": "nonpayable",
      "type": "function"
    },
    {
      "inputs": [
        {
          "internalType": "uint256",
          "name": "_value",
          "type": "uint256"
        }
      ],
      "name": "setValue",
      "outputs": [],
      "stateMutability": "nonpayable",
      "type": "function"
    },
    {
      "inputs": [],
      "name": "value",
      "outputs": [
        {
          "internalType": "uint256",
          "name": "",
          "type": "uint256"
        }
      ],
      "stateMutability": "view",
      "type": "function"
    }
  ],
  "bytecode": "0x608060405234801561001057600080fd5b506104e0806100206000396000f3fe608060405234801561001057600080fd5b50600436106100575760003560e01c8063160ef8071461005c57806320965255146100785780633fa4f2451461009657806355241077146100b4578063fe4b84df146100d0575b600080fd5b610076600480360381019061007191906102be565b6100ec565b005b610080610108565b60405161008d91906102fa565b60405180910390f35b61009e610112565b6040516100ab91906102fa565b60405180910390f35b6100ce60048036038101906100c991906102be565b610118565b005b6100ea60048036038101906100e591906102be565b610122565b005b80600160008282546100fe9190610344565b9250508190555050565b6000600154905090565b60015481565b8060018190555050565b60008060019054906101000a900460ff161590508080156101535750600160008054906101000a900460ff1660ff16105b80610180575061016230610260565b15801561017f5750600160008054906101000a900460ff1660ff16145b5b6101bf576040517f08c379a00000000000000000000000000000000000000000000000000000000081526004016101b69061041d565b60405180910390fd5b60016000806101000a81548160ff021916908360ff16021790555080156101fc576001600060016101000a81548160ff0219169083151502179055505b81600181905550801561025c5760008060016101000a81548160ff0219169083151502179055507f7f26b83ff96e1f2b6a682f133852f6798a09c465da95921460cefb38474024986001604051610253919061048f565b60405180910390a15b5050565b6000808273ffffffffffffffffffffffffffffffffffffffff163b119050919050565b600080fd5b6000819050919050565b61029b81610288565b81146102a657600080fd5b50565b6000813590506102b881610292565b92915050565b6000602082840312156102d4576102d3610283565b5b60006102e2848285016102a9565b91505092915050565b6102f481610288565b82525050565b600060208201905061030f60008301846102eb565b92915050565b7f4e487b7100000000000000000000000000000000000000000000000000000000600052601160045260246000fd5b600061034f82610288565b915061035a83610288565b9250827fffffffffffffffffffffffffffffffffffffffffffffffffffffffffffffffff0382111561038f5761038e610315565b5b828201905092915050565b600082825260208201905092915050565b7f496e697469616c697a61626c653a20636f6e747261637420697320616c72656160008201527f647920696e697469616c697a6564000000000000000000000000000000000000602082015250565b6000610407602e8361039a565b9150610412826103ab565b604082019050919050565b60006020820190508181036000830152610436816103fa565b9050919050565b6000819050919050565b600060ff82169050919050565b6000819050919050565b600061047961047461046f8461043d565b610454565b610447565b9050919050565b6104898161045e565b82525050565b60006020820190506104a46000830184610480565b9291505056fea26469706673582212207beb37723e92cf4b730976d8dd52af7a583f5e9f0948d5f3dead4bf75e4ac3f664736f6c634300080b0033",
  "linkReferences": {},
  "deployedLinkReferences": {}
}