{
  "_format": "hh-sol-artifact-1",
  "contractName": "contractV1",
  "sourceName": "contracts/contractV1.sol",
  "abi": [
    {
      "anonymous": false,
      "inputs": [
        {
          "indexed": false,
          "internalType": "uint8",
          "name": "version",
          "type": "uint8"
        }
      ],
      "name": "Initialized",
      "type": "event"
    },
    {
      "inputs": [],
      "name": "getValue",
      "outputs": [
        {
          "internalType": "uint256",
          "name": "",
          "type": "uint256"
        }
      ],
      "stateMutability": "view",
      "type": "function"
    },
    {
      "inputs": [
        {
          "internalType": "uint256",
          "name": "_value",
          "type": "uint256"
        }
      ],
      "name": "initialize",
      "outputs": [],
      "stateMutability": "nonpayable",
      "type": "function"
    },
    {
      "inputs": [
        {
          "internalType": "uint256",
          "name": "_value",
          "type": "uint256"
        }
      ],
      "name": "setValue",
      "outputs": [],
      "stateMutability": "nonpayable",
      "type": "function"
    },
    {
      "inputs": [],
      "name": "value",
      "outputs": [
        {
          "internalType": "uint256",
          "name": "",
          "type": "uint256"
        }
      ],
      "stateMutability": "view",
      "type": "function"
    }
  ],
  "bytecode": "0x608060405234801561001057600080fd5b50610418806100206000396000f3fe608060405234801561001057600080fd5b506004361061004c5760003560e01c806320965255146100515780633fa4f2451461006f578063552410771461008d578063fe4b84df146100a9575b600080fd5b6100596100c5565b6040516100669190610259565b60405180910390f35b6100776100cf565b6040516100849190610259565b60405180910390f35b6100a760048036038101906100a291906102a5565b6100d5565b005b6100c360048036038101906100be91906102a5565b6100df565b005b6000600154905090565b60015481565b8060018190555050565b60008060019054906101000a900460ff161590508080156101105750600160008054906101000a900460ff1660ff16105b8061013d575061011f3061021d565b15801561013c5750600160008054906101000a900460ff1660ff16145b5b61017c576040517f08c379a000000000000000000000000000000000000000000000000000000000815260040161017390610355565b60405180910390fd5b60016000806101000a81548160ff021916908360ff16021790555080156101b9576001600060016101000a81548160ff0219169083151502179055505b8160018190555080156102195760008060016101000a81548160ff0219169083151502179055507f7f26b83ff96e1f2b6a682f133852f6798a09c465da95921460cefb3847402498600160405161021091906103c7565b60405180910390a15b5050565b6000808273ffffffffffffffffffffffffffffffffffffffff163b119050919050565b6000819050919050565b61025381610240565b82525050565b600060208201905061026e600083018461024a565b92915050565b600080fd5b61028281610240565b811461028d57600080fd5b50565b60008135905061029f81610279565b92915050565b6000602082840312156102bb576102ba610274565b5b60006102c984828501610290565b91505092915050565b600082825260208201905092915050565b7f496e697469616c697a61626c653a20636f6e747261637420697320616c72656160008201527f647920696e697469616c697a6564000000000000000000000000000000000000602082015250565b600061033f602e836102d2565b915061034a826102e3565b604082019050919050565b6000602082019050818103600083015261036e81610332565b9050919050565b6000819050919050565b600060ff82169050919050565b6000819050919050565b60006103b16103ac6103a784610375565b61038c565b61037f565b9050919050565b6103c181610396565b82525050565b60006020820190506103dc60008301846103b8565b9291505056fea26469706673582212205f5b29db21b3333a05d5ac97cfee6cfc91520b38b376806bf23edd9841e4583b64736f6c634300080b0033",
  "linkReferences": {},
  "deployedLinkReferences": {}
}